{
  "contractName": "FoodSafe",
  "abi": [
    {
      "constant": false,
      "inputs": [],
      "name": "GetTrailCount",
      "outputs": [
        {
          "name": "",
          "type": "uint8"
        }
      ],
      "payable": false,
      "stateMutability": "nonpayable",
      "type": "function"
    },
    {
      "constant": false,
      "inputs": [
        {
          "name": "LocationId",
          "type": "uint256"
        },
        {
          "name": "Name",
          "type": "string"
        },
        {
          "name": "Secret",
          "type": "string"
        }
      ],
      "name": "AddNewLocation",
      "outputs": [],
      "payable": false,
      "stateMutability": "nonpayable",
      "type": "function"
    },
    {
      "constant": false,
      "inputs": [
        {
          "name": "TrailNo",
          "type": "uint8"
        }
      ],
      "name": "GetLocation",
      "outputs": [
        {
          "name": "",
          "type": "string"
        },
        {
          "name": "",
          "type": "uint256"
        },
        {
          "name": "",
          "type": "uint256"
        },
        {
          "name": "",
          "type": "uint256"
        },
        {
          "name": "",
          "type": "string"
        }
      ],
      "payable": false,
      "stateMutability": "nonpayable",
      "type": "function"
    }
  ],
  "bytecode": "0x60806040526000600160006101000a81548160ff021916908360ff16021790555034801561002c57600080fd5b5061068b8061003c6000396000f300608060405260043610610057576000357c0100000000000000000000000000000000000000000000000000000000900463ffffffff168063988bbca31461005c578063bbe42af814610115578063e3fd1ec214610146575b600080fd5b34801561006857600080fd5b5061011360048036038101908080359060200190929190803590602001908201803590602001908080601f0160208091040260200160405190810160405280939291908181526020018383808284378201915050505050509192919290803590602001908201803590602001908080601f0160208091040260200160405190810160405280939291908181526020018383808284378201915050505050509192919290505050610270565b005b34801561012157600080fd5b5061012a6103a4565b604051808260ff1660ff16815260200191505060405180910390f35b34801561015257600080fd5b50610174600480360381019080803560ff1690602001909291905050506103bb565b604051808060200186815260200185815260200184815260200180602001838103835288818151815260200191508051906020019080838360005b838110156101ca5780820151818401526020810190506101af565b50505050905090810190601f1680156101f75780820380516001836020036101000a031916815260200191505b50838103825284818151815260200191508051906020019080838360005b83811015610230578082015181840152602081019050610215565b50505050905090810190601f16801561025d5780820380516001836020036101000a031916815260200191505b5097505050505050505060405180910390f35b61027861058a565b82816000018190525083816020018181525050818160800181905250428160600181815250506000600160009054906101000a900460ff1660ff161415156102ec57600080600160009054906101000a900460ff1660ff168152602001908152602001600020600101548160400181815250505b80600080600160009054906101000a900460ff1660ff168152602001908152602001600020600082015181600001908051906020019061032d9291906105ba565b5060208201518160010155604082015181600201556060820151816003015560808201518160040190805190602001906103689291906105ba565b509050506001600081819054906101000a900460ff168092919060010191906101000a81548160ff021916908360ff1602179055505050505050565b6000600160009054906101000a900460ff16905090565b6060600080600060606000808760ff1681526020019081526020016000206000016000808860ff168152602001908152602001600020600101546000808960ff168152602001908152602001600020600201546000808a60ff168152602001908152602001600020600301546000808b60ff168152602001908152602001600020600401848054600181600116156101000203166002900480601f0160208091040260200160405190810160405280929190818152602001828054600181600116156101000203166002900480156104d45780601f106104a9576101008083540402835291602001916104d4565b820191906000526020600020905b8154815290600101906020018083116104b757829003601f168201915b50505050509450808054600181600116156101000203166002900480601f0160208091040260200160405190810160405280929190818152602001828054600181600116156101000203166002900480156105705780601f1061054557610100808354040283529160200191610570565b820191906000526020600020905b81548152906001019060200180831161055357829003601f168201915b505050505090509450945094509450945091939590929450565b60a06040519081016040528060608152602001600081526020016000815260200160008152602001606081525090565b828054600181600116156101000203166002900490600052602060002090601f016020900481019282601f106105fb57805160ff1916838001178555610629565b82800160010185558215610629579182015b8281111561062857825182559160200191906001019061060d565b5b509050610636919061063a565b5090565b61065c91905b80821115610658576000816000905550600101610640565b5090565b905600a165627a7a723058203be5c8367525dc94436bfb3b4146da86fcf5119d7f9e52f9a56a9a5a015cc16c0029",
  "source": "pragma solidity ^0.4.6;\r\ncontract FoodSafe\r\n{\r\n    struct Location{\r\n        string Name;\r\n        uint LocationId;\r\n        uint PreviousLocationId;\r\n        uint Timestamp;\r\n        string Secret;\r\n    }\r\n    \r\n    mapping(uint => Location) Trail;\r\n    uint8 TrailCount=0;\r\n\r\n    function GetTrailCount() returns(uint8){\r\n        return TrailCount;\r\n    }\r\n\r\n    function AddNewLocation(uint LocationId, string Name, string Secret)\r\n    {\r\n        Location memory newLocation;\r\n        newLocation.Name = Name;\r\n        newLocation.LocationId= LocationId;\r\n        newLocation.Secret= Secret;\r\n        newLocation.Timestamp = now;\r\n        if(TrailCount!=0)\r\n        {\r\n            newLocation.PreviousLocationId= Trail[TrailCount].LocationId;\r\n        }\r\n        Trail[TrailCount] = newLocation;\r\n        TrailCount++;\r\n    }\r\n\r\n\r\n    function GetLocation(uint8 TrailNo) returns (string,uint,uint,uint,string)\r\n    {\r\n        return (Trail[TrailNo].Name, Trail[TrailNo].LocationId, Trail[TrailNo].PreviousLocationId, Trail[TrailNo].Timestamp,Trail[TrailNo].Secret);\r\n    }\r\n}\r\n",
  "sourcePath": "D:\\code\\BlockchainFundamentalsUpdated\\Foodsafe\\contracts\\Foodsafe.sol",
  "compiler": {
    "name": "solc",
    "version": "0.4.24+commit.e67f0147.Emscripten.clang"
  },
  "schemaVersion": "2.0.1",
  "updatedAt": "2018-10-27T09:27:45.803Z"
}